:020000040800F2
:100000000000022081040008E5040008E50400085F
:10001000E5040008E5040008E5040008000000000D
:10002000000000000000000000000000850500083E
:10003000E504000800000000AD06000811070008F4
:10004000E5040008E5040008E5040008E5040008EC
:10005000E5040008E5040008E5040008E5040008DC
:10006000E5040008E5040008E5040008E5040008CC
:10007000E5040008E5040008E5040008E5040008BC
:10008000E5040008E5040008E5040008E5040008AC
:10009000E5040008E5040008E5040008E50400089C
:1000A000E5040008E5040008E5040008E50400088C
:1000B000E5040008E5040008E5040008E50400087C
:1000C000E5040008E5040008E5040008E50400086C
:1000D000E5040008E5040008E5040008E50400085C
:1000E000E5040008E5040008E5040008E50400084C
:1000F000E5040008E5040008E5040008E50400083C
:10010000E5040008E5040008E5040008E50400082B
:10011000E5040008E5040008E5040008E50400081B
:10012000E5040008E5040008E5040008E50400080B
:10013000E5040008E5040008E5040008E5040008FB
:10014000E5040008E5040008E5040008E5040008EB
:10015000E5040008E5040008E5040008E5040008DB
:10016000E5040008E5040008E5040008E5040008CB
:10017000E5040008E5040008E5040008E5040008BB
:08018000E5040008E504000895
:1001C000844641EA000313F003036DD1403A41D362
:1001D00051F8043B40F8043B51F8043B40F8043B21
:1001E00051F8043B40F8043B51F8043B40F8043B11
:1001F00051F8043B40F8043B51F8043B40F8043B01
:1002000051F8043B40F8043B51F8043B40F8043BF0
:1002100051F8043B40F8043B51F8043B40F8043BE0
:1002200051F8043B40F8043B51F8043B40F8043BD0
:1002300051F8043B40F8043B51F8043B40F8043BC0
:1002400051F8043B40F8043B51F8043B40F8043BB0
:10025000403ABDD2303211D351F8043B40F8043B50
:1002600051F8043B40F8043B51F8043B40F8043B90
:1002700051F8043B40F8043B103AEDD20C3205D360
:1002800051F8043B40F8043B043AF9D2043208D058
:10029000D2071CBF11F8013B00F8013B01D30B88CA
:1002A00003806046704700BF082A13D38B078DD0A8
:1002B00010F003038AD0C3F10403D21ADB071CBF7A
:1002C00011F8013B00F8013B80D331F8023B20F8E4
:1002D000023B7BE7043AD9D3013A11F8013B00F81D
:1002E000013BF9D20B7803704B7843708B788370A5
:1002F00060467047000000000000000000000000A1
:1003000090F800F06DE9024520F007016FF0000C55
:1003100010F0070491F820F040F049804FF00004FD
:100320006FF00700D1E9002391F840F000F10800D8
:1003300082FA4CF2A4FA8CF283FA4CF3A2FA8CF310
:100340004BBBD1E9022382FA4CF200F10800A4FA77
:100350008CF283FA4CF3A2FA8CF3E3B9D1E90423CB
:1003600082FA4CF200F10800A4FA8CF283FA4CF302
:10037000A2FA8CF37BB9D1E9062301F1200182FABC
:100380004CF200F10800A4FA8CF283FA4CF3A2FAC2
:100390008CF3002BC6D0002A04BF04301A4612BAD0
:1003A000B2FA82F2FDE8024500EBD2007047D1E9D3
:1003B000002304F00305C4F100004FEAC50514F062
:1003C000040F91F840F00CFA05F562EA05021CBF33
:1003D00063EA050362464FF00004A9E7000000004D
:1003E00001F0FF01102A2BDB10F0070F08D010F8E6
:1003F000013B013A8B422DD010F0070F42B3F6D1EA
:10040000F0B441EA012141EA014122F007047FF002
:1004100000070023F0E80256083C85EA010586EA59
:10042000010685FA47F5A3FA87F586FA47F6A5FA95
:1004300087F68EB9EED1F0BC01F0FF0102F00702A1
:1004400032B110F8013B013A83EA010313B1F8D14C
:100450000020704701387047002D06BF354603382D
:10046000073815F0010F07D1013015F4807F02BF66
:10047000013015F4C03F0130F0BC0138704700BFB7
:10048000DFF844D0DFF84400016841F470010160F6
:10049000BFF34F8FBFF36F8F0D480E490E4A0023F5
:1004A00002E0D458C4500433C4188C42F9D30B4A28
:1004B0000B4C002301E013600432A242FBD300F096
:1004C00065FA00F0F1FDFEE70000022088ED00E093
:1004D0000000002058080020483900085808002073
:1004E000981C0020FEE7000080B485B000AFF860E3
:1004F000B9607A60FB68043BFB60FB684FF0807278
:100500001A60FB68043BFB60BB6823F00102FB68D8
:100510001A60FB68043BFB600C4AFB681A60FB68CE
:10052000143BFB607A68FB681A60FB68043BFB6065
:10053000FB686FF002021A60FB68203BFB60FB68FF
:1005400018461437BD465DF8047B70475105000816
:1005500080B483B000AF00233B604FF0000383F30F
:100560001188BFF36F8FBFF34F8F7B6000BF00BF59
:100570003B68002BFCD000BF00BF0C37BD465DF8C8
:10058000047B7047064B19680868B0E8F04F80F3A9
:100590000988BFF36F8F4FF0000080F31188704718
:1005A000B018002000BF00BF08480068006880F352
:1005B00008884FF0000080F3148862B661B6BFF37C
:1005C0004F8FBFF36F8F00DF00BF000008ED00E02A
:1005D00000BF00BF80B582B000AF154B1B687B60C9
:1005E000144B1B68134A43F47F031360114B1B68C1
:1005F000104A43F07F4313600F4B00221A6000F053
:1006000073F90E4B00221A6000F0A0F90C4B1B6826
:100610000B4A43F040431360FFF7C6FF01F00EFBA7
:10062000FFF796FF002318460837BD4680BD00BF80
:1006300008ED00E020ED00E01CED00E000000020EF
:1006400034EF00E080B483B000AF4FF0000383F3D9
:100650001188BFF36F8FBFF34F8F7B6000BF054BD7
:100660001B680133034A136000BF0C37BD465DF8B9
:10067000047B70470000002080B483B000AF0A4BB9
:100680001B68013B084A1360074B1B68002B05D110
:1006900000237B607B6883F3118800BF00BF0C37A9
:1006A000BD465DF8047B704700000020EFF3098031
:1006B000BFF36F8F144B1A681EF0100F08BF20EDA8
:1006C000108A20E9F04F10602DE909004FF000007A
:1006D00080F31188BFF34F8FBFF36F8F01F0AEFA35
:1006E0004FF0000080F3118809BC19680868B0E871
:1006F000F04F1EF0100F08BFB0EC108A80F309888D
:10070000BFF36F8F70470000B018002000BF00BF1C
:1007100080B582B000AF4FF0000383F31188BFF3C0
:100720006F8FBFF34F8F7B6000BF01F07DF90346F1
:10073000002B03D0064B4FF080521A6000233B6021
:100740003B6883F3118800BF00BF0837BD4680BDFA
:1007500004ED00E080B588B000AF78605B4B1B68AB
:100760007A689A4202D9594B1B687B6072B6BFF314
:100770004F8FBFF36F8F01F0CBFA0346002B01D1EF
:1007800062B69EE0524B06221A60524B1B687B6198
:100790007B69002B02D1504B1B687B617B68013B5E
:1007A0004D4A126802FB03F37A691344FB614B4B19
:1007B0001B6803F08063002B08D0484B4FF0007299
:1007C0001A60454B1B68FA69D31AFB61444B1B68DE
:1007D000FA699A4204D9424B1B68FA69D31AFB6141
:1007E000404AFB6913603B4B00221A60384B1B6880
:1007F000374A43F0010313607B68FB60FB68002B02
:1008000004D0BFF34F8F30BFBFF36F8F62B6BFF31B
:100810004F8FBFF36F8F72B6BFF34F8FBFF36F8FE2
:100820002B4B06221A602A4B1B6803F48033002BE3
:100830001DD0294B1A68274B1968FB69CB1A134442
:10084000013B3B61264B1B683A699A4204D9224B13
:100850001B683A699A4203D91F4B1B68013B3B61F5
:10086000204A3B6913607B68013BBB611AE0194B6E
:100870001B687B61184B1B687A6803FB02F27B697B
:10088000D31ABB60144B1B68BA68B2FBF3F3BB61AD
:10089000BB690133104A126803FB02F21149BB68BD
:1008A000D31A0B600B4B00221A60094B07221A6007
:1008B000094B1B680B4A013B1360B86901F08AF8C9
:1008C00062B600BF2037BD4680BD00BF5C08002077
:1008D00010E000E018E000E05808002004ED00E01F
:1008E0006008002014E000E080B400AF0F4B104A15
:1008F0001A600E4B1B686FF07F42B2FBF3F30D4A98
:1009000013600D4B5E221A600C4B00221A600C4BD8
:1009100000221A600B4B0C4A1A60084B07221A601F
:1009200000BFBD465DF8047B704700BF580800203B
:10093000409002005C0800206008002010E000E009
:1009400018E000E014E000E03F900200DFF80C0047
:10095000016841F4700101607047000088ED00E01B
:1009600000BF00BF80B483B000AF7860064A7B68E8
:1009700043F0BF6343F40033D36000BF0C37BD4680
:100980005DF8047B704700BF00ED00E080B500AF6C
:10099000164BD3F88830154A43F47003C2F88830F8
:1009A000134B1B68124A43F001031360104B0022E3
:1009B0009A600F4B1B680E4A23F0847323F4803334
:1009C00013600B4B0B4A5A60094B1B68084A23F40F
:1009D00080231360064B0022DA6000F00DF8034B11
:1009E0004FF000629A6000BF80BD00BF00ED00E0E4
:1009F000003802401030002480B483B000AF0023E0
:100A00007B6000233B60364B1B68354A43F48033E0
:100A10001360334B1B6803F400333B607B68013386
:100A20007B603B68002B03D17B68B3F5A04FF0D10E
:100A30002B4B1B6803F40033002B02D001233B60D7
:100A400001E000233B603B68012B42D1244B1B6C2F
:100A5000234A43F080531364224B1B68214A43F41A
:100A6000404313601E4B1E4A9B6893601C4B9B685F
:100A70001B4A43F400439360194B9B68184A43F4A4
:100A8000A0539360164B184A5A60154B1B68144AC2
:100A900043F08073136000BF114B1B6803F00073B9
:100AA000002BF9D0114B40F205721A600C4B9B6879
:100AB0000B4A23F003039360094B9B68084A43F0F9
:100AC0000203936000BF064B9B6803F00C03082BE6
:100AD000F9D100BF0C37BD465DF8047B704700BFFD
:100AE000003802400070004008544007003C0240BB
:100AF00080B489B000AF78600023BB6100237B61C4
:100B00000023FB6102233B610023FB600223BB60E7
:100B10004A4B9B6803F00C03BB61BB69082B11D0E7
:100B2000BB69082B44D8BB69002B03D0BB69042BDD
:100B300004D03DE07B68424A1A603DE07B68414A50
:100B40001A6039E03D4B5B689B0D03F00103FB60CD
:100B50003A4B5B6803F03F03BB60FB68002B0CD093
:100B6000384ABB68B2FBF3F3344A52689209C2F3C5
:100B7000080202FB03F3FB610BE0314ABB68B2FBE6
:100B8000F3F32E4A52689209C2F3080202FB03F300
:100B9000FB612A4B5B681B0C03F0030301335B0012
:100BA0003B61FA693B69B2FBF3F27B681A6003E0D0
:100BB0007B68234A1A6000BF204B9B6803F0F00358
:100BC000BB61BB691B09BB611F4ABB6913441B782E
:100BD000DBB27B617B681A687B69DA407B685A60AC
:100BE000164B9B6803F4E053BB61BB699B0ABB6176
:100BF000154ABB6913441B78DBB27B617B685A687A
:100C00007B69DA407B689A600C4B9B6803F4604315
:100C1000BB61BB695B0BBB610B4ABB6913441B78AF
:100C2000DBB27B617B685A687B69DA407B68DA609B
:100C300000BF2437BD465DF8047B70470038024092
:100C40000024F40000127A000400002080B483B075
:100C500000AF78600B46FB70FB78002B06D00A4B88
:100C60001A6B09497B6813430B6306E0064B1A6B4A
:100C70007B68DB43044913400B6300BF0C37BD4660
:100C80005DF8047B704700BF0038024080B483B039
:100C900000AF78600B46FB70FB78002B06D00A4B48
:100CA0005A6C09497B6813434B6406E0064B5A6C47
:100CB0007B68DB43044913404B6400BF0C37BD46DF
:100CC0005DF8047B704700BF0038024080B487B0F5
:100CD00000AF7860396000237B6100233B61002313
:100CE000FB6000237B6176E001227B6902FA03F35B
:100CF0003B613B681B683A691340FB60FA683B69DB
:100D00009A4265D17B681A687B695B00032101FA0E
:100D100003F3DB431A407B681A607B681A683B6800
:100D20001B7919467B695B0001FA03F31A437B6860
:100D30001A603B681B79012B03D03B681B79022B9F
:100D40002ED17B689A687B695B00032101FA03F36B
:100D5000DB431A407B689A607B689A683B685B79E2
:100D600019467B695B0001FA03F31A437B689A60BA
:100D70007B685A687B699BB2194601238B40DB4331
:100D80001A407B685A607B685B683A6892791146C2
:100D90007A6992B201FA02F292B21A437B685A60FF
:100DA0007B68DA687B699BB25B00032101FA03F37D
:100DB000DB431A407B68DA607B68DA683B68DB7982
:100DC00019467B695B0001FA03F31A437B68DA601A
:100DD0007B6901337B617B690F2B85D900BF00BF25
:100DE0001C37BD465DF8047B704780B485B000AF0A
:100DF00078600B467B8013467B700023FB600023EA
:100E0000BB607A787B8803F007039B0002FA03F348
:100E1000FB607B88DB089BB21A467B68083253F87C
:100E200022207B8803F007039B000F2101FA03F3C4
:100E3000DB437988C90889B2084602EA03017B6866
:100E400000F1080243F822107B88DB089BB21A46A7
:100E50007B68083253F82230FA681343BB607B8802
:100E6000DB089BB21A467B680832B96843F8221047
:100E700000BF1437BD465DF8047B704780B58AB06B
:100E800000AF7860396000237B6200233B6200235F
:100E9000FB610023BB617B681B8A9BB27B627B6A20
:100EA00023F440537B623B68DB881A467B6A13431A
:100EB0007B627B6A9AB27B681A827B689B899BB251
:100EC0007B627B6A23F4B05323F00C037B623B68A4
:100ED0009A883B681B8913439AB23B685B8913432A
:100EE0009BB21A467B6A13437B627B6A9AB27B6829
:100EF0009A817B689B8A9BB27B627B6A23F44073F6
:100F00007B623B689B891A467B6A13437B627B6AE0
:100F10009AB27B689A8207F108031846FFF7E8FD4A
:100F20007B68304A934203D07B682F4A934202D1B8
:100F30007B693B6201E03B693B627B689B899BB2BA
:100F40001BB2002B0CDA3A6A13469B0013449A003A
:100F50001A443B681B685B00B2FBF3F3FB610BE0D8
:100F60003A6A13469B0013449A001A443B681B6874
:100F70009B00B2FBF3F3FB61FB691C4AA2FB03235A
:100F80005B091B017B627B6A1B09642202FB03F382
:100F9000FA69D31ABB617B689B899BB21BB2002B99
:100FA0000CDABB69DB003233104AA2FB03235B0976
:100FB00003F007037A6A13437B620BE0BB691B01F2
:100FC00032330A4AA2FB03235B0903F00F037A6A58
:100FD00013437B627B6A9AB27B681A8100BF283711
:100FE000BD4680BD00100140001401401F85EB513B
:100FF00080B483B000AF78600B46FB70FB78002BA9
:1010000008D07B689B899BB243F400539AB27B68FB
:101010009A8107E07B689B899BB223F400539AB2C4
:101020007B689A8100BF0C37BD465DF8047B704732
:1010300080B483B000AF78600B467B807B88C3F3BD
:1010400008039AB27B689A8000BF0C37BD465DF8F2
:10105000047B704780B485B000AF78600B467B801E
:101060000023FB737B681B889AB27B8813409BB27A
:10107000002B02D00123FB7301E00023FB73FB7BF9
:1010800018461437BD465DF8047B704780B582B0C2
:1010900000AF7860034801F027FB4FF47A7000F04E
:1010A00095FAF7E70C39000880B584B004AF00F07A
:1010B00023F80C4801F018FB4FF44070FFF752FC86
:1010C000094B0293094B01930423009300234FF42F
:1010D00080620749074800F04EF900F00BFB00BFA3
:1010E000BD4680BD1C39000864180020640800203B
:1010F000303900088D10000880B586B000AF01219E
:101100000220FFF7A3FD01211020FFF7BFFD0722FA
:1011100006211848FFF769FE072207211548FFF747
:1011200064FEC0233B6102233B7502237B750023D1
:10113000BB7507F1100319460E48FFF7C7FD4FF4C2
:10114000E1333B600023BB800023FB8000233B8115
:101150000023BB810C237B813B4619460648FFF7E1
:101160008DFE01210448FFF743FF00BF1837BD463D
:1011700080BD00BF000402400010014080B586B071
:1011800000AFF860B9607A60FB68012B02D0FB68A1
:10119000022B1CD100237B6113E000BF802111488A
:1011A000FFF758FF0346002BF8D07B69BA68134459
:1011B0001B789BB219460B48FFF73AFF7B69013356
:1011C0007B617A697B689A42E7DB7B6906E000F025
:1011D00021FF034605221A604FF0FF3318461837E7
:1011E000BD4680BD0010014080B483B000AF786080
:1011F0007B6803F108027B685A607B684FF0FF321E
:101200009A607B6803F108027B68DA607B6803F10F
:1012100008027B681A617B6800225A617B680022A1
:101220009A617B6800221A6000BF0C37BD465DF8EA
:10123000047B704780B483B000AF78607B68002285
:101240001A6100BF0C37BD465DF8047B704780B45F
:1012500085B000AF786039603B681B68BB60BB68D5
:10126000B3F1FF3F03D17B681B69FB600CE07B6837
:101270000833FB6002E0FB685B68FB60FB685B684F
:101280001B68BA689A42F6D2FB685A683B685A6093
:101290003B685B683A689A603B68FA689A60FB68EA
:1012A0003A685A603B687A681A617B681B685A1C06
:1012B0007B681A6000BF1437BD465DF8047B704739
:1012C00080B485B000AF78607B681B69FB607B6889
:1012D0005B687A6892689A607B689B687A685268F3
:1012E0005A60FB685B687A689A4203D17B689A68A7
:1012F000FB685A607B6800221A61FB681B685A1EF3
:10130000FB681A60FB681B6818461437BD465DF819
:10131000047B704780B58AB004AFF860B9607A602A
:101320003B60BB6A002B1FD07B6A002B1CD0BB6AC2
:101330007B614C220021786901F02AF97B697A6A85
:101340001A637B69022283F84920002303937B6997
:101350000293FB6A01933B6A00933B687A68B96821
:10136000F86800F02CF801E000237B617B691846E7
:101370001837BD4680BD80B58AB004AFF860B9604B
:101380007A603B6000233B6107F110030393BB6A63
:1013900002937B6A01933B6A00933B687A68B96861
:1013A000F868FFF7B7FF78617B69002B02D0786996
:1013B00000F076F83B6918461837BD4680BD80B509
:1013C00086B000AFF860B9607A603B60BB6A186BAA
:1013D0007B689B001A46A52101F0DAF8BB6A1A6BFC
:1013E0007B6803F18043013B9B0013443B613B69F5
:1013F00023F007033B61BB68002B1ED000237B61F9
:1014000012E0BA687B6913441978BA6A7B6913449D
:1014100034330A461A70BA687B6913441B78002B70
:1014200006D07B6901337B617B69032BE9D900E03E
:1014300000BFBB6A002283F837203B6A042B01D926
:1014400004233B62BB6A3A6ADA62BB6A3A6A9A630D
:10145000BB6A04331846FFF7EDFEBB6A1833184623
:10146000FFF7E8FEBB6ABA6A1A613B6AC3F105027C
:10147000BB6A9A61BB6ABA6A5A623A68F9683869A3
:10148000FFF732F80246BB6A1A607B6A002B02D073
:101490007B6ABA6A1A6000BF1837BD4680BD00007B
:1014A00080B584B000AF7860FFF7CCF8404B1B6884
:1014B00001333F4A13603F4B1B68002B09D13D4A63
:1014C0007B6813603A4B1B68012B10D100F058FC6D
:1014D0000DE0394B1B68002B09D1364B1B68DA6ACB
:1014E0007B68DB6A9A4202D8324A7B681360334BCE
:1014F0001B680133314A13607B68DA6A304B1B6822
:101500009A4203D97B68DB6A2D4A13607B68DA6AEA
:101510002C491346DB009B1A9B000B4404331B68C9
:10152000FB607B68FA689A60FB689A687B68DA609F
:10153000FB689B687A6804325A607B681A1DFB68F6
:101540009A607B68DA6A1346DB009B1A9B001D4A8F
:101550001A447B685A617B68DA6A1A491346DB00D1
:101560009B1A9B000B441B687A68D26A591C154869
:101570001346DB009B1A9B0003441960FFF77CF8BD
:101580000D4B1B68002B0ED00A4B1B68DA6A7B6878
:10159000DB6A9A4207D20C4B4FF080521A60BFF3BD
:1015A0004F8FBFF36F8F00BF1037BD4680BD00BFA8
:1015B000D8190020B0180020E4190020F4190020E8
:1015C000E0190020B418002004ED00E080B584B0DC
:1015D00000AF78600023FB607B68002B08D000F030
:1015E000B7F80021786800F073FC00F0F9F8F860B3
:1015F000FB68002B07D1064B4FF080521A60BFF3F7
:101600004F8FBFF36F8F00BF1037BD4680BD00BF47
:1016100004ED00E080B58CB004AF0123FB61002332
:10162000FB6000233B6100237B6113E02E4A7B6952
:101630001344197807F10C027B6913440A461A70A7
:1016400007F10C027B6913441B78002B06D07B69E1
:1016500001337B617B69022BE8D900E000BF07F111
:101660000C027B69134400221A700023BB6130E036
:101670001E4B3B610023BB6000237B603A46391D53
:1016800007F10803184600F099FC38687B68BA68CF
:1016900007F10C01029201930023009300230246FC
:1016A0003869FFF768FE02461149BB6941F82320FB
:1016B0000F4ABB6952F82330002B02D00123FB6193
:1016C00001E00023FB61FB69012B06D1BB690133FB
:1016D000BB61BB69002BCBDD00E000BFFB69184696
:1016E0002037BD4680BD00BF3C390008DD1C000826
:1016F000FC19002080B582B000AFFFF78BFF786047
:101700007B68012B15D14FF0000383F31188BFF3E1
:101710006F8FBFF34F8F3B6000BF094B4FF0FF321D
:101720001A60084B01221A60074B00221A60FEF76C
:1017300051FF064B1B6800BF0837BD4680BD00BF88
:10174000F8190020E4190020DC1900201400002002
:1017500080B400AF044B1B680133034A136000BF21
:10176000BD465DF8047B7047001A002080B483B04A
:1017700000AF00233B60154B1B68002B01D00123F9
:101780003B60134B1B68DB6A002B02D000237B609D
:1017900014E0104B1B68012B02D900237B600DE085
:1017A0003B68002B02D000237B6007E00A4B1B68DC
:1017B0007B600A4B1B687A68D31A7B607B6818468B
:1017C0000C37BD465DF8047B704700BFE019002070
:1017D000B0180020B4180020F8190020DC190020EF
:1017E00080B588B000AF0023FB610023BB61FEF72A
:1017F00029FF00233B616E4B1B68013B6C4A136061
:101800006B4B1B68002B40F0CB806A4B1B68002B96
:1018100000F0C6808FE0684BDB68DB68FB61FB692A
:101820009B6AFB60FB69DB69FA69126A9A60FB6973
:101830001B6AFA69D2695A60FB685A68FB691833F7
:101840009A4203D1FB691A6AFB685A60FB6900225D
:101850009A62FB681B685A1EFB681A60FB695B6929
:10186000BB60FB699B68FA69D2689A60FB69DB68B8
:10187000FA6992685A60BB685A68FB6904339A42F5
:1018800003D1FB69DA68BB685A60FB6900225A61C0
:10189000BB681B685A1EBB681A60FB69DA6A474B53
:1018A0001B689A4203D9FB69DB6A444A1360FB69EF
:1018B000DA6A43491346DB009B1A9B000B4404334E
:1018C0001B687B60FB697A689A607B689A68FB6931
:1018D000DA607B689B68FA6904325A60FB691A1DFA
:1018E0007B689A60FB69DA6A1346DB009B1A9B00EF
:1018F000334A1A44FB695A61FB69DA6A3049134674
:10190000DB009B1A9B000B441B68FA69D26A591CC6
:101910002B481346DB009B1A9B0003441960FB69AC
:10192000DA6A284B1B68DB6A9A4204D9264A3B696B
:10193000012142F82310204B1B68002B7FF46BAF72
:10194000FB69002B01D000F0A7FA204B1B687B61DC
:101950007B69002B12D000F067F80346002B04D0FF
:10196000194A3B69012142F823107B69013B7B61E5
:101970007B69002BEFD1154B00221A60124A3B699C
:1019800052F82330002B0BD00123BB610D4B1B6899
:101990000F4B4FF080521A60BFF34F8FBFF36F8F22
:1019A000FEF76AFEBB6918462037BD4680BD00BF02
:1019B000001A0020D819002080190020E01900200A
:1019C000B4180020B0180020EC190020E8190020FD
:1019D00004ED00E080B584B000AF78600F4B1B6869
:1019E0007A681344FB600E4B1B68FA689A420BD16D
:1019F000FEF728FE0B4B1B6801330A4A1360FEF703
:101A00003BFE7B68013B7B60044B1A687B68134498
:101A1000024A136000BF1037BD4680BDDC190020AC
:101A2000F8190020E819002080B588B000AF002325
:101A3000FB61774B1B68002B40F0DF80754B1B6808
:101A40000133BB61734ABB691360BB69002B10D1C2
:101A5000714B1B687B61714B1B686F4A13606F4A47
:101A60007B6913606E4B1B6801336D4A136000F095
:101A700013FA6C4B1B68BA699A42C0F0A980664B96
:101A80001B681B68002B04D1664B4FF0FF321A60B5
:101A90009EE0614B1B68DB68DB683B613B695B6810
:101AA000FB60BA69FB689A4203D25E4AFB68136026
:101AB0008EE03B695B69BB603B699B683A69D268B1
:101AC0009A603B69DB683A6992685A60BB685A68F9
:101AD0003B6904339A4203D13B69DA68BB685A60B8
:101AE0003B6900225A61BB681B685A1EBB681A60BA
:101AF0003B699B6A002B1ED03B699B6A7B603B69FC
:101B0000DB693A69126A9A603B691B6A3A69D26971
:101B10005A607B685A683B6918339A4203D13B6923
:101B20001A6A7B685A603B6900229A627B681B686C
:101B30005A1E7B681A603B69DA6A3B4B1B689A4203
:101B400003D93B69DB6A384A13603B69DA6A374973
:101B50001346DB009B1A9B000B4404331B683B605D
:101B60003B693A689A603B689A683B69DA603B680F
:101B70009B683A6904325A603B691A1D3B689A6057
:101B80003B69DA6A1346DB009B1A9B00274A1A441A
:101B90003B695A613B69DA6A24491346DB009B1AA8
:101BA0009B000B441B683A69D26A591C1F481346B4
:101BB000DB009B1A9B00034419603B69DA6A1C4BEB
:101BC0001B68DB6A9A427FF65AAF0123FB6156E736
:101BD000174B1B68DA6A15491346DB009B1A9B00FA
:101BE0000B441B68012B01D90123FB61114B1B68BE
:101BF000002B07D00123FB6104E00F4B1B6801336E
:101C00000D4A1360FB6918462037BD4680BD00BFF2
:101C1000001A0020DC190020781900207C1900200F
:101C2000F0190020F8190020E0190020B418002055
:101C3000B0180020EC190020E819002080B483B00F
:101C400000AF214B1B68002B03D0204B01221A60F0
:101C500034E01E4B00221A601D4B1B687B6002E0C3
:101C60007B68013B7B601B497A681346DB009B1A4B
:101C70009B000B441B68002BF2D07A681346DB00F4
:101C80009B1A9B00134A13443B603B685B685A688D
:101C90003B685A603B685A683B6808339A4203D1F4
:101CA0003B68DA683B685A603B685B68DB680A4AF5
:101CB0001360074A7B681360074B1B6800BF0C3733
:101CC000BD465DF8047B7047001A0020EC19002027
:101CD000E0190020B4180020B018002080B584B0AE
:101CE00000AF786000F08CF8FFF740FDF860FB680B
:101CF000012BF7D9FFF72CFDFFF738FDF860FB68E3
:101D0000012B02D9F868FEF725FDFFF769FDE9E729
:101D100080B483B000AF01233B600123FB71134B00
:101D20001B68002B02D00023FB7117E0104B1B68CF
:101D3000002B02D00023FB7110E00E4B1B68002B20
:101D400002D00023FB7109E00B4B1A680B4B19689A
:101D50003B68CB1A9A4201D10223FB71FB791846EA
:101D60000C37BD465DF8047B704700BF801900202A
:101D7000EC190020E8190020BC190020D819002017
:101D800080B582B000AF00237B600CE07A68134618
:101D9000DB009B1A9B00124A13441846FFF724FAF3
:101DA0007B6801337B607B68042BEFD90D48FFF71C
:101DB0001BFA0D48FFF718FA0C48FFF715FA0C4804
:101DC000FFF712FA0B48FFF70FFA0B4B054A1A60A0
:101DD0000A4B054A1A6000BF0837BD4680BD00BFE8
:101DE000B4180020401900205C1900208019002040
:101DF0009C190020BC190020781900207C190020B3
:101E000080B582B000AF19E0FEF71CFC104BDB6818
:101E1000DB687B607B6804331846FFF751FA0D4B93
:101E20001B68013B0B4A13600B4B1B68013B0A4AC2
:101E30001360FEF721FC786800F010F8064B1B6871
:101E4000002BE1D100BF00BF0837BD4680BD00BFF9
:101E50009C190020D8190020B819002080B582B044
:101E600000AF78607B6893F84930002B08D17B681D
:101E70001B6B184600F0BCF8786800F0B9F807E072
:101E80007B6893F84930012B02D1786800F0B0F8F4
:101E900000BF0837BD4680BD80B400AF0A4B1B6849
:101EA0001B68002B04D1094B4FF0FF321A6005E08C
:101EB000054B1B68DB681B68044A136000BFBD4606
:101EC0005DF8047B704700BF78190020F8190020E6
:101ED00080B588B000AF78603960324B1B68FB6119
:101EE000314B1B68BB61314B1B687B61304B1B68FE
:101EF000002283F84A202E4B1B6804331846FFF754
:101F0000DFF97B68B3F1FF3F24D13B68002B21D080
:101F1000284B5B683B61264B1B683A699A60244BEF
:101F20001B683A699268DA60214B1A683B699B68C2
:101F300004325A601E4B1B681A1D3B699A601C4B89
:101F40001B681C4A5A611B4B1B680133194A1360FA
:101F500000BF22E0FA697B681344FB60144B1B68E6
:101F6000FA685A60FA68FB699A4207D2104B1B68FC
:101F7000043319467869FFF76AF90EE00C4B1B68C9
:101F800004331946B869FFF762F90B4B1B68FA680E
:101F90009A4202D2084AFB68136000BF2037BD4650
:101FA00080BD00BFDC190020781900207C190020BA
:101FB000B0180020BC190020F819002080B485B0AA
:101FC00000AFF860B9607A60FB68074A1A60BB68C6
:101FD000064A1A607B6880221A6000BF1437BD462B
:101FE0005DF8047B704700BF041A0020501A0020DF
:101FF00080B582B000AF78607B68002B06D0FFF719
:10200000A7FB786800F00CF8FFF7EAFB00BF083781
:10201000BD4680BD014B1868704700BF1800002006
:10202000024B0146186800F061BC00BF1800002098
:102030002DE9F04F01F10B06162E83B0044624D88B
:10204000102900F2BA8000F0F5FA102618220220BA
:10205000B54F3A44A2F1080153688B4200F0BA80B0
:102060005A68D96822F003021A449D68E9608D60BD
:10207000516841F001012046516003F1080500F06C
:10208000DFFA284603B0BDE8F08F36F0070600F10E
:102090009480B14200F2918000F0CCFAB6F5FC7F5A
:1020A000C0F09A81730A00F08F80042B00F26F81D8
:1020B000B30903F1390003F1380CC3009A4F3B44D4
:1020C000A3F108055B689D4206D10CE0002980F26F
:1020D0002781DB689D4206D05A6822F00302911BDB
:1020E0000F29F3DD60463D69DFF850C265457CD0BD
:1020F0006A6822F00302931B0F2B00F37B81002BF5
:10210000C7E904CC80F26C81B2F5007F80F01A81BF
:10211000D308796801334FEA521E012202FA0EF207
:102120000A4357F833E0C5F808E007EBC301083964
:10213000E9607A6047F83350CEF80C5083100121E3
:102140009940914257D8114206D120F0030049002E
:10215000114200F10400FAD007EBC0094D46864653
:10216000D5F80C80454508D11DE1002B80F2248173
:10217000D8F80C80454500F01681D8F8042022F0EC
:102180000302931B0F2BF0DD2046D8E9025408EB25
:10219000060146F00106C8F80460EC60A56043F053
:1021A0000104C7E90411C1E902CC4C6048F80230CF
:1021B00000F046FA08F1080502E00C232360002530
:1021C000284603B0BDE8F08F4FF4007340204FF075
:1021D0003F0C73E7D3689A4208BF02307FF440AFE8
:1021E0003D69DFF858C1654582D17A6883100121C5
:1021F00099409142A7D9BD686B6823F003094E4509
:1022000003D8A9EB06030F2B7ADCDFF834B1474B78
:10221000DBF800201B680132334405EB090A00F0AB
:10222000338103F580530F3323F47F6828F00F08C0
:102230004146204600F060FA411C024600F0F3805F
:10224000824500F2EE803A4B196841441960084615
:1022500000F04E81DBF80010019301311BBFA2EBAF
:102260000A0A5044CBF80020186012F0070B00F067
:102270001781CBF108010A44CBF580519044083115
:10228000A1EB0801C1F30B0A51462046009200F071
:1022900033FA421CDDE9002300F04F81801A00EB85
:1022A0000A081968BA6048F001005144BD42506004
:1022B000196000F02981B9F10F0F40F22781686899
:1022C000A9F10C0C2CF0070C00F0010040EA0C0006
:1022D00068604FF0050E05EB0C00BCF10F0FC0E974
:1022E00001EE00F2328150681546124B1A688A429C
:1022F00038BF1960104B1A688A4238BF196094E0E1
:10230000AA1943F0010346F001066E602046BA6048
:10231000536000F095F90835284603B0BDE8F08F0A
:10232000D9681A44A1E600BF48040020801C0020A0
:10233000501C0020781C00207C1C00205004002031
:1023400050080020B2F5206F4FEA522363D3142BBC
:1023500000F2B78003F15C01C9005B3307EB010EAB
:102360007958AEF1080E8E4500F091804B6823F04D
:102370000303934202D989688E45F7D1D1F80CE066
:102380007A68C5E9021ECEF80850CD60D6E6142B57
:1023900059D9542B00F29D80330B03F16F0003F1E8
:1023A0006E0CC3008AE60EF1010E1EF0030F05F15C
:1023B00008057FF4D5AE51E0424445465368D8F84D
:1023C0000C1043F00103536055F8083F2046D960D4
:1023D0008B6000F035F9F3E6F00806F1080237E605
:1023E0002A442046536843F001035360083500F047
:1023F00027F9E5E6A919204646F0010643F0010455
:102400006E60C7E90411C1E902CC4C60AB5000F02A
:1024100017F90835D4E6930903F13901C9003833B7
:102420009CE7BD425FD0BD68686820F00308464560
:10243000A8EB060302D80F2B3FF762AF204600F04F
:10244000FFF80025BCE603F15C0003F15B0CC30060
:1024500034E659F808394B4540F0968010F0030FE8
:1024600000F1FF30F5D17B6823EA01037B6049006E
:1024700099423FF6C0AE19B9BDE649000EF1040E0F
:102480001942FAD0704667E603F11008D0E69A10B8
:102490004FF001087B6808FA02F21A437A6070E78D
:1024A00002EB08014942C1F30B0A51462046009253
:1024B00000F022F9431CDDE900237FF4EFAEDA4699
:1024C000EFE6542B25D8130B03F16F01C9006E33CF
:1024D00044E7B3F5AA7F25D8F30B03F1780003F1A5
:1024E000770CC300EAE5294B186840441860B1E650
:1024F000CAF30B0CBCF1000F7FF4ACAEBD68C8444E
:1025000048F001006860F0E61546EEE601235360EE
:1025100094E7B3F5AA7F23D8D30B03F17801C90060
:1025200077331BE740F25452934223D8B30C03F1A4
:102530007D0003F17C0CC300C0E5ABF1080BD8446F
:10254000A8EB02084FF0000AABE605F108012046AF
:10255000009300F0CBF9BD68009B68681968C4E679
:1025600040F254518B420BD8930C03F17D01C9000A
:102570007C33F3E64FF47E737F204FF07E0C9DE5B5
:102580004FF47E717E23E9E67B6870E7501C0020E3
:10259000830730B548D0541E002A3FD0CAB2034644
:1025A00001E0013C3AD303F8012B9D07F9D1032C3C
:1025B0002DD9CDB245EA05250F2C45EA054536D97A
:1025C000A4F1100222F00F0C03F1200EE6444FEAB2
:1025D000121C03F1100242E9045542E9025510327F
:1025E0007245F8D10CF1010214F00C0F03EB02124A
:1025F00004F00F0C13D0ACF1040323F003030433F5
:10260000134442F8045B9342FBD10CF003042CB159
:10261000CAB21C4403F8012B9C42FBD130BD644676
:102620001346002CF4D1F9E703461446BFE71A46D7
:10263000A446E0E7014800F0FFBB00BF841C002077
:10264000014800F0FBBB00BF841C002070B50546AC
:1026500088B008460C46FDF753FE224EAA6B059043
:1026600001214318CDE9066104A8022104940393D3
:10267000AC680190029122B3636E13F0010FB4F9BC
:102680000C309AB201D1980525D5910406D4626E1A
:1026900043F4005322F40052A3816266284601AA43
:1026A000214600F029FA636E002814BF4FF0FF3571
:1026B0000A25DA0702D4A3899B0506D5284608B067
:1026C00070BD284600F030F8D6E7A06D00F0B6FBEC
:1026D000284608B070BDA06D00F0AEFBB4F90C3018
:1026E0009AB2D2E744390008024B01461868FFF756
:1026F000ADBF00BF1800002038B5074D00220446CA
:1027000008462A6001F0F4F8431C00D038BD2B685D
:10271000002BFBD0236038BD901C0020014900F045
:1027200063BB00BFC13400082DE9F0478246394839
:1027300000F082FBDAF83840002C66D1DAF8045059
:10274000354ACAF83C200323CAE9B843DFF8DC90D5
:10275000DFF8DC80314F324E04230AF53B72CAF8B1
:10276000E8222146C5E90243C5E90044C5E904441D
:102770006C660822AC6105F15C00FFF709FFC5E952
:102780000759C5E90987EE6205F1580000F050FBD2
:10279000DAF80850234BEB602146C5E90044C5E94F
:1027A00004446C66AC60AC61082205F15C00FFF784
:1027B000EFFEC5E90759C5E90987EE6205F1580042
:1027C00000F036FBDAF80C50174BEB602146C5E9F8
:1027D0000044C5E904446C66AC60AC61082205F1B4
:1027E0005C00FFF7D5FE05F15800C5E90759C5E9BA
:1027F0000A76C5F8248000F01BFB0123CAF83830A4
:102800000448BDE8F04700F019BBBDE8F0470148B7
:1028100000F014BB8C1C00201D2700087533000835
:10282000953300080900010012000200113300086E
:1028300035330008014800F0FFBA00BF881C0020B3
:10284000014800F0FBBA00BF881C0020F8B5244FF7
:102850000C460646FFF7EEFEBA685568C4F57E637F
:102860000F3325F003052B4423F47F6323F00F037C
:10287000A3F58054B4F5805F07DB00213046FFF7F5
:102880003BFFBB682B44984204D03046FFF7D8FE8C
:102890000020F8BD61423046FFF72EFF01300DD019
:1028A000104ABB682D1B45F001055D60136830467A
:1028B0001B1B1360FFF7C4FE0120F8BD002130464A
:1028C000FFF71AFFBA68831A0F2BDEDD43F001030E
:1028D0005360054B03491B68C01A0860D5E700BF69
:1028E00048040020501C002050080020002961D01E
:1028F000F8B50C460646FFF79DFE54F8042C7B4FB6
:10290000A4F1080522F0010105EB010CB868DCF820
:102910000430604523F0030300F08B80D207CCF82D
:10292000043032D454F8082CAD1A1144AA6807F1C7
:10293000080082426AD00CEB0304D4F804E0EC688F
:10294000D4601EF0010FA26000F0978041F00103F7
:102950006B60CCF80010B1F5007F35D27A68CB08F7
:1029600048090121013381401143796007EBC3021B
:1029700057F83310083AC5E9021247F83350CD60D2
:102980003046BDE8F840FFF75BBE0CEB030252682F
:10299000D00710D4194407F10800DCF8083083424E
:1029A00073D0DCF80C20DA60936041F001036B60B7
:1029B0006950D0E7704741F00103B1F5007F44F85A
:1029C000043CCCF80010C9D3B1F5206F4FEA512375
:1029D00048D28B0903F1390003F13802C300F8181B
:1029E000FB580838984259D05A6822F003028A42AC
:1029F00002D99B689842F7D1D868C5E90230856052
:102A0000DD603046BDE8F840FFF71ABE0CEB03026C
:102A10005268D20763D40B44DCE90212CA609160A9
:102A200043F001026A603046EB50BDE8F840FFF722
:102A300007BE0B44D10707D454F8082CAD1A134431
:102A4000D5E90212CA60916043F001026A60284A27
:102A5000BD6012689A4293D8264B30461968FFF73A
:102A6000F5FE8DE7142B0AD9542B1FD80B0B03F15D
:102A70006F0003F16E02C300B1E719448DE703F163
:102A80005C0003F15B02C300A9E741F00103C7E961
:102A90000455C5E902006B60695071E779689210CE
:102AA000012404FA02F20A437A60A6E7B3F5AA7F8A
:102AB00006D8CB0B03F1780003F17702C3008EE751
:102AC00040F25452934206D88B0C03F17D0003F17F
:102AD0007C02C30083E74FF47E737E227FE741F0E0
:102AE00001036B60CCF800104AE700BF48040020E7
:102AF00054080020801C00209368002B00F0858083
:102B00002DE9F04FB1F90C300C461907804683B01F
:102B1000174698B225D523691BB310F002033D6810
:102B20002DD04FF0000ADFF8BCB25646B9465E45DC
:102B30003346524628BF5B464046002E52D0E169DC
:102B4000676AB847002856DDD9F808301B1A824456
:102B5000361AC9F80830002BE9D1002003B0BDE8CF
:102B6000F08F2146404600F02FFC002840F03681CF
:102B7000B4F90C303D6898B210F00203D1D110F0D6
:102B8000010944D14E46009746B38205D4F808B0F7
:102B900040F18380B3455A4600F2B28010F4906F42
:102BA00040F0BF8020680192494600F049F9A368CF
:102BB000019AA3EB0B012368A1601344B246236082
:102BC0000026009B9868A0EB0A00D144986000287A
:102BD000C3D0B4F90C0080B2002ED6D1D5E900964E
:102BE0000835D1E7D5E900A60835A0E721464046DB
:102BF00000F064FD80B3B4F90C3043F040034FF0B3
:102C0000FF30A38103B0BDE8F08F002070471E465F
:102C1000AA46994618461D46009756B388B34A46B9
:102C2000D4E904132068B24228BF3246884205D94D
:102C3000A16803EB010B5A4500F3A680934263DCC5
:102C4000E169676A2A464046B847B0F1000BD2DD19
:102C5000B9EB0B09CAD00120009A9368A3EB0B03D0
:102C60005D44A6EB0B069360002B3FF476AF002E7D
:102C7000D4D10AF1080353E902569A460833002ECC
:102C8000F9D032460A212846FDF7AAFB002800F0B9
:102C90009C800130A0EB0509C1E7206823699842B8
:102CA00016D86369B34213D86FF00042B24228BF0E
:102CB0003246E16992FBF3F2676A02FB03F3404696
:102CC0004A46B847B0F1000A95DDA6EB0A0678E758
:102CD000B345DA4628BFB2465246494600F0B0F83E
:102CE000A3682268A3EB0A035244A3602260002B6E
:102CF000EBD12146404600F0E1FC0028E5D07AE720
:102D00002068B34632464EE72946019200F098F813
:102D1000019AA3689B1AA360236813442360934617
:102D200096E723682169A3EB010B636903EB430A70
:102D30000AEBDA7A0BF101034FEA6A0A334453458E
:102D4000524684BF9A46524643052CD5114640460A
:102D5000FFF76EF900283BD05A4621690190FDF734
:102D60002FFAA289019B22F4906242F08002A28194
:102D700003EB0B002361AAEB0B03C4F814A0A360C0
:102D80002060B34632460EE729465A4600F058F80E
:102D900023685B4423602146404600F08FFC0028F6
:102DA0003FF456AF27E7404600F0C6F80346002838
:102DB000DED121694046FFF799FDB4F90C300C22B1
:102DC00023F08003C8F8002017E7721C914627E71C
:102DD0000C22B4F90C30C8F800200EE74FF0FF3099
:102DE000BCE600BF00FCFF7F2DE9F843074688469C
:102DF00000F538764FF00009D6E90154013D11D4B1
:102E0000A389012B05F1FF3508D9B4F90E30013340
:102E1000214603D03846C04749EA00096B1C04F13B
:102E20006804EDD13668002EE6D14846BDE8F88347
:102E3000704700BF704700BF704700BF704700BFBA
:102E400088420DD98B1883420AD900EB020CBAB123
:102E5000624613F801CD02F801CD9942F9D17047CD
:102E60000F2A0ED8034602F1FF3C4AB10CF1010CC7
:102E7000013B8C4411F8012B03F8012F6145F9D176
:102E8000704740EA01039B0750D1A2F1100370B5CF
:102E900001F1200C23F00F0501F1100E00F11004D8
:102EA000AC441B095EF8105C44F8105C5EF80C5CE6
:102EB00044F80C5C5EF8085C44F8085C5EF8045C5E
:102EC00044F8045C0EF1100EE64504F11004E9D15B
:102ED000013312F00C0F01EB031102F00F0400EBB1
:102EE000031327D0043C24F003064FEA940C1E443D
:102EF0001C1F8E465EF8045B44F8045FB442F9D1AF
:102F00000CF1010402F0030203EB840301EB8401E2
:102F100002F1FF3C4AB10CF1010C013B8C4411F869
:102F2000012B03F8012F6145F9D170BD02F1FF3C7F
:102F300003469BE72246EBE72DE9F84F17460029A9
:102F400000F0988007F10B0580460C46FFF772FBF6
:102F5000162D5DD810252A46AF425ED854F8041CC1
:102F600021F003069642A4F1080962DABC4BD3F8BB
:102F700008C009EB0600844500F09780D0F804C033
:102F80002CF0010303445B68DB0768D42CF0030CCE
:102F900006EB0C03934247DACB0710D454F8083CF5
:102FA000A9EB030ADAF8043023F003018C44B4449B
:102FB000944580F211817318934280F2E88039467B
:102FC0004046FFF735F80746E0B154F8043C23F0DB
:102FD00001034B44A0F10802934200F0D280321F5B
:102FE000242A00F2F580132A00F2AC800346224620
:102FF000116819605168596092689A60214640468C
:10300000FFF774FC4046FFF71BFB3846BDE8F88F1E
:1030100025F00705002D2A469EDA0C23C8F800305B
:1030200000273846BDE8F88F1E46D0E90223D3605A
:103030009A60731B0F2B22D8D9F8043003F00103D8
:1030400033434E44C9F80430736843F0010373609E
:1030500040462746FFF7F4FA3846BDE8F88FC9071F
:10306000ADD454F8083CA9EB030ADAF8041021F0B7
:103070000301A0E7BDE8F84F1146FEF7D9BFD9F824
:10308000041001F001012943C9F8041009EB0501FE
:103090004E4443F001034B60736843F00103083171
:1030A00073604046FFF722FCD2E7DCF8040020F012
:1030B000030B06EB0B0C05F1100084454DDAC90734
:1030C0003FF57DAF54F8081CA9EB010ADAF80410AB
:1030D00021F003018B44B34458453FF76CAF57468A
:1030E000DAF80C1057F8080F321F242AC1608860E4
:1030F00000F2DB80132A40F2D6802168CAF808105B
:103100006168CAF80C101B2A00F2DF8008340AF14B
:1031100010022168116061685160A16891600AEB3A
:103120000501ABEB050242F0010299604A60DAF852
:10313000043003F001031D434046CAF80450FFF772
:103140007FFA6EE723680360636843601B2A68D8D0
:1031500004F1080200F108034AE709EB05029A604E
:10316000ACEB050343F00103536054F8043C03F057
:1031700001031D43404644F8045CFFF761FA27460B
:103180004FE750F8043C23F003031E4451E7574631
:10319000DAF80C1057F8080F321F242AC160886033
:1031A0004CD8132A48D92168CAF808106168CAF8AF
:1031B0000C101B2A56D808340AF110021E46236848
:1031C000136063685360A3689360D1463C4630E760
:1031D0002146FFF735FE11E7D0E902135746CB60D1
:1031E000996057F8081FDAF80C30CB60321F242A98
:1031F00099602DD8132A29D92368CAF80830636842
:10320000CAF80C301B2A42D808340AF1100322688D
:103210001A6062685A60A2689A606646D1463C4667
:1032200007E7A3688360E368C360242A26D004F11B
:10323000100200F11003DBE63A46BFE721463846AC
:103240001E46D146FFF7FCFD3C46F2E63B46DEE774
:10325000214638466646D146FFF7F2FD3C46E8E691
:1032600048040020A168CAF81010E168CAF81410D8
:10327000242A20D010340AF118029FE72369036141
:103280006169416104F1180200F11803B0E6A36816
:10329000CAF81030E368CAF81430242A21D0103458
:1032A0000AF11803B3E73A4633E721463846FFF7F9
:1032B000C7FD164B33E72269CAF818206269CAF8BD
:1032C0001C2018340AF1200278E7A168CAF810100F
:1032D000E168CAF81410242A0DD010340AF118023B
:1032E00017E72369CAF818306369CAF81C30183424
:1032F0000AF120038BE72269CAF818206269CAF82C
:103300001C2018340AF1200203E700BF4804002003
:1033100010B50C46B1F90E1000F084FA002803DB5A
:10332000236D0344236510BDA38923F48053A38137
:1033300010BD00BF2DE9F0410C46B1F90C101F463D
:10334000CB05054616460BD421F48051A1813B469E
:10335000B4F90E1032462846BDE8F04100F01EB820
:10336000B4F90E100223002200F0D6F9B4F90C10C3
:10337000EAE700BF10B50C46B1F90E1000F0CCF929
:10338000A389421C0EBF23F4805343F4805320656D
:10339000A38110BDB1F90E1000F080B838B50C460D
:1033A000084D8446114620461A4600232B60644689
:1033B000FDF7E4FE431C00D038BD2B68002BFBD08A
:1033C000236038BD901C002038B5334B1B68054680
:1033D0000C460BB19A6B12B3B4F90C3018079AB2C1
:1033E00025D5216900292DD012F0010007D0002039
:1033F000A06060694042A06139B1002038BD9507E6
:1034000058BF6069A0600029F7D1120658BF08466E
:10341000F4D543F04003A3814FF0FF3038BD184688
:10342000FFF782F9B4F90C3018079AB2D9D4D10653
:103430002AD5520714D4216943F00803A3819AB214
:103440000029D1D102F42070B0F5007FCCD0214604
:10345000284600F077F9B4F90C3021699AB2C3E735
:10346000216B51B104F14002914204D02846FFF78C
:103470003DFAB4F90C300022226321690022C4E92C
:10348000001223F02403D7E7092243F040032A6007
:103490004FF0FF30A38138BD1800002038B5074D2C
:1034A0000022044608462A6000F0FAF9431C00D0C6
:1034B00038BD2B68002BFBD0236038BD901C00204A
:1034C00070B500294BD006460C4610B1836B002B1B
:1034D00048D0636ED80734D5B4F90C30002B3ED0F9
:1034E0002146304600F052F8E36A054633B1E169FF
:1034F000304698470028B8BF4FF0FF35A3891A0619
:103500003BD4216B41B104F14003994202D03046D3
:10351000FFF7ECF900232363616C21B13046FFF71C
:10352000E5F900236364FFF785F9636E0022DB078A
:10353000A28127D5A06DFFF77DFCFFF781F9284612
:1035400070BDA3899905CBD4A06DFFF775FCB4F9C4
:103550000C30002BC4D1656E15F0010508D0002594
:10356000284670BDFFF7E0F8636ED807B4D4E8E7EB
:10357000A06DFFF763FC284670BD21693046FFF758
:10358000B5F9BEE7A06DFFF759FCD3E7B1F90C2000
:103590002DE9F0410C461107804647D4636842F498
:1035A0000062002BA2815EDDA56A002D58D00023A9
:1035B000D8F80060C8F8003093B212F4805256D1A7
:1035C0000123E1694046A847431C67D0A389A56A47
:1035D0005F0705D56368C01A236B0BB1E36BC01A94
:1035E000E169024600234046A847411C41D1D8F872
:1035F0000030002B3DD01D2B01D0162B56D1A389B6
:103600002269226023F4006300216160A381216BA1
:10361000C8F8006021B304F14003994202D040464B
:10362000FFF764F900202063BDE8F0812669BEB190
:1036300093B2256826609A070CBF63690023AD1B0F
:10364000A3600BE02B463246E169676A4046B84703
:10365000B0F1000CA5EB0C05664417DD002DF1DC84
:103660000020BDE8F081E36B002B9DDCF8E7206DC6
:10367000AEE7B4F90C302269226023F40063A38121
:103680000022DB046260C2D52065C0E7A38943F055
:1036900040034FF0FF30A381BDE8F081D8F800303F
:1036A000002B93D01D2B06D0162B04D0A38943F0FA
:1036B0004003A381D5E7C8F80060D1E738B50C46D0
:1036C000054608B1836BA3B1B4F90C00B8B1636EC1
:1036D000DB0701D4810515D528462146FFF756FFA3
:1036E000636EDA07054602D4A3899B050ED52846EA
:1036F00038BDFFF719F8B4F90C000028E7D10546EA
:10370000284638BDA06DFFF797FBE5E7A06DFFF7F2
:1037100095FB284638BD00BF38B50C46084D844699
:10372000114620461A4600232B60644600F0D0F86C
:10373000431C00D038BD2B68002BFBD0236038BD64
:10374000901C00202DE9F0418B890C46990796B01A
:1037500008D504F143030122C4E90432236016B002
:10376000BDE8F081B4F90E100029064627DB6A4651
:1037700000F06EF8002821DB019D05F47045A5F5E9
:103780000055B5FA85F54FF480686D094FF4006770
:1037900041463046FEF74CFCB4F90C30F0B1204AFB
:1037A000F26343F08003C4F81480A3812060206199
:1037B00035BB3B43A38116B0BDE8F081A38913F06C
:1037C000800519D04FF0400841463046FEF730FCE6
:1037D0000025B4F90C302F460028E0D19A05BED45C
:1037E00023F0030304F1430243F002030121C4E97F
:1037F0000421A3812260B2E74FF480682F46C7E717
:10380000B4F90E10304600F039F810B9B4F90C30A4
:10381000CFE7A38923F0030343F001031BB2C8E7FA
:103820001D27000838B50C46084D84461146204631
:103830001A4600232B60644600F052F8431C00D067
:1038400038BD2B68002BFBD0236038BD901C0020B6
:1038500070B50C46084D03460026204611461C460E
:103860002E6000F025F8431C00D070BD2B68002BA3
:10387000FBD0236070BD00BF901C002038B5074D01
:103880000022044608462A6000F01AF8431C00D0C3
:1038900038BD2B68002BFBD0236038BD901C002066
:1038A000024B58221A604FF0FF307047901C0020E6
:1038B000024B58221A604FF0FF307047901C0020D6
:1038C000024B58221A600020704700BF901C002055
:1038D000024B58221A604FF0FF307047901C0020B6
:1038E000024B58221A604FF0FF307047901C0020A6
:1038F000044A05491368002B08BF0B4618441060A2
:0C39000018467047941C0020981C002002
:10390C0048656C6C6F20576F726C64210D00000061
:10391C004170706C69636174696F6E20537461726D
:10392C0074210D006D61696E5F7461736B00000032
:0C393C0049444C45000000000A00000057
:10394800AAAAAAAA000000000102030401020304B3
:1039580006070809040000002000002000000000FD
:10396800000000000C03002074030020DC0300208A
:10397800000000000000000000000000000000003F
:10398800000000000000000000000000000000002F
:10399800000000000000000000000000000000001F
:1039A800000000000000000000000000000000000F
:1039B80000000000000000000000000000000000FF
:1039C80000000000000000000000000000000000EF
:1039D80000000000000000000000000000000000DF
:1039E80000000000000000000000000000000000CF
:1039F80000000000000000000000000000000000BF
:103A080000000000000000000100000000000000AD
:103A18000E33CDAB34126DE6ECDE05000B00000072
:103A2800000000000000000000000000000000008E
:103A3800000000000000000000000000000000007E
:103A4800000000000000000000000000000000006E
:103A5800000000000000000000000000000000005E
:103D9800480400204804002050040020500400205B
:103DA800580400205804002060040020600400200B
:103DB80068040020680400207004002070040020BB
:103DC800780400207804002080040020800400206B
:103DD800880400208804002090040020900400201B
:103DE8009804002098040020A0040020A0040020CB
:103DF800A8040020A8040020B0040020B00400207B
:103E0800B8040020B8040020C0040020C00400202A
:103E1800C8040020C8040020D0040020D0040020DA
:103E2800D8040020D8040020E0040020E00400208A
:103E3800E8040020E8040020F0040020F00400203A
:103E4800F8040020F80400200005002000050020E8
:103E58000805002008050020100500201005002096
:103E68001805002018050020200500202005002046
:103E780028050020280500203005002030050020F6
:103E880038050020380500204005002040050020A6
:103E98004805002048050020500500205005002056
:103EA8005805002058050020600500206005002006
:103EB80068050020680500207005002070050020B6
:103EC8007805002078050020800500208005002066
:103ED8008805002088050020900500209005002016
:103EE8009805002098050020A0050020A0050020C6
:103EF800A8050020A8050020B0050020B005002076
:103F0800B8050020B8050020C0050020C005002025
:103F1800C8050020C8050020D0050020D0050020D5
:103F2800D8050020D8050020E0050020E005002085
:103F3800E8050020E8050020F0050020F005002035
:103F4800F8050020F80500200006002000060020E3
:103F58000806002008060020100600201006002091
:103F68001806002018060020200600202006002041
:103F780028060020280600203006002030060020F1
:103F880038060020380600204006002040060020A1
:103F98004806002048060020500600205006002051
:103FA8005806002058060020600600206006002001
:103FB80068060020680600207006002070060020B1
:103FC8007806002078060020800600208006002061
:103FD8008806002088060020900600209006002011
:103FE8009806002098060020A0060020A0060020C1
:103FF800A8060020A8060020B0060020B006002071
:10400800B8060020B8060020C0060020C006002020
:10401800C8060020C8060020D0060020D0060020D0
:10402800D8060020D8060020E0060020E006002080
:10403800E8060020E8060020F0060020F006002030
:10404800F8060020F80600200007002000070020DE
:10405800080700200807002010070020100700208C
:10406800180700201807002020070020200700203C
:1040780028070020280700203007002030070020EC
:10408800380700203807002040070020400700209C
:10409800480700204807002050070020500700204C
:1040A80058070020580700206007002060070020FC
:1040B80068070020680700207007002070070020AC
:1040C800780700207807002080070020800700205C
:1040D800880700208807002090070020900700200C
:1040E8009807002098070020A0070020A0070020BC
:1040F800A8070020A8070020B0070020B00700206C
:10410800B8070020B8070020C0070020C00700201B
:10411800C8070020C8070020D0070020D0070020CB
:10412800D8070020D8070020E0070020E00700207B
:10413800E8070020E8070020F0070020F00700202B
:10414800F8070020F80700200008002000080020D9
:104158000808002008080020100800201008002087
:104168001808002018080020200800202008002037
:1041780028080020280800203008002030080020E7
:104188003808002038080020400800204008002097
:08419800FFFFFFFF0000020021
:04000005080004816A
:00000001FF
