:100000002971232E1112232C5112232A6112232825
:100010007112232681122324A1122322B11223203C
:10002000C112232ED110232CE110232AF1102328F2
:100030000111232611112324C1112322D1112320C0
:10004000E111FEDF82B586B18AAD8EA992A596A197
:100050001ABD1EB92AB52EB132AD36A93AA53EA1B8
:10006000C2BCC6B8F2B4F6B0FAACFEA88002F32760
:1000700020342324F4F0832784F02322F4F0F327A0
:1000800010342320F4F0832704F02326F4F0F32720
:100090000030232EF4EE8327C4EF232CF4EEF32755
:1000A0003000232AF4EE832744EF2328F4EEF327CD
:1000B000B07C2326F4EE8327C4EE2324F4EEF3274A
:1000C000D07C2322F4EE832744EE2320F4EE832712
:1000D00044F063DC0700032744F08567FD177D8F3C
:1000E0009D476314F7004122E1A0832744F063D0C9
:1000F0000708032744F08567FD177D8F8D47631838
:10010000F706B70740E62326F4EC232404EC832704
:1001100084EC1397C7008327C4EC3E97B7072000F1
:100120009107BA972322F4EC832744EC9C43010007
:100130009122B70740E6232EF4EC232C04EC8547EC
:10014000232AF4EC832784ED1397C7008327C4ED9B
:100150003E97B70720009107BA972328F4EC83272E
:1001600004ED032744ED98C30100010091A083270B
:1001700044F063C80702032744F08567FD177D8FAD
:10018000AD476310F702930720283687B2862E8684
:10019000AA85468582978327C4F091072326F4F029
:1001A00001A88325C4F0032544F0ED282326A4F0FC
:1001B000832784EF739007308327C4F0739017343C
:1001C000832704EF73903700832704EE7390D77C66
:1001D000832784EE7390B77C01008320C1138322B0
:1001E000811303234113832301130324C112032525
:1001F000811283254112032601128326C111032790
:10020000811183274111032801118328C110032E76
:100210008110832E4110032F0110FE5F2E308E308F
:100220006E21CE212E228E226A33CA332A358A3598
:100230006A26CA262A278A276638C638263E863E78
:10024000662FC62F316173002030000000000000CF
:10025000411122C6000801A0411122C60008010078
:10026000324441018280411122C60008010032441B
:1002700041018280411122C600080100324441013F
:100280008280797122D600182326A4FE2324B4FE8E
:100290002322C4FE2320D4FE232EE4FC010032548A
:1002A00045618280011122CE00102326A4FE232462
:1002B000B4FE0327C4FEBD4763EBE7008327C4FEFB
:1002C000139727009307C02DBA979C43828701009C
:1002D000832784FE3E85724405618280CE02000041
:1002E000CE020000CE020000CE020000CE020000CE
:1002F000CE020000CE020000CE020000CE020000BE
:10030000CE020000CE020000CE020000CE020000AD
:10031000CE020000CE020000CE020000000000006D
:0400000300000250A7
:00000001FF
